:020000040800F2
:100000001807002089010008CF11000875100008AA
:10001000CD1100088F0200085317000800000000EF
:10002000000000000000000000000000AD14000807
:100030009102000800000000AB140008AF14000893
:10004000A3010008A3010008A3010008A301000800
:10005000A3010008A3010008A3010008A3010008F0
:10006000A3010008A3010008A3010008A3010008E0
:10007000A3010008A3010008A3010008A3010008D0
:10008000A3010008A3010008A3010008A3010008C0
:10009000A3010008A3010008A3010008A3010008B0
:1000A000A3010008A3010008A3010008A3010008A0
:1000B00011150008A3010008A3010008A30100080E
:1000C000A3010008A3010008A3010008A301000880
:1000D000A3010008A3010008A3010008A301000870
:1000E000A3010008A3010008A301000800F002F822
:1000F00000F03AF80AA090E8000C82448344AAF188
:100100000107DA4501D100F02FF8AFF2090EBAE885
:100110000F0013F0010F18BFFB1A43F0010318473B
:100120001C1F00003C1F0000103A24BF78C878C193
:10013000FAD8520724BF30C830C144BF04680C60ED
:10014000704700000023002400250026103A28BF35
:1001500078C1FBD8520728BF30C148BF0B60704739
:100160001FB51FBD10B510BD00F058F81146FFF7C0
:10017000F7FF01F0FFFA00F076F803B4FFF7F2FFA3
:1001800003BC00F07DF8000009488047094800479B
:10019000FEE7FEE7FEE7FEE7FEE7FEE7FEE7FEE737
:1001A000FEE7FEE704480549054A064B7047000094
:1001B0000D150008ED0000081801002018070020A8
:1001C00018030020180300204FF0000200B513466A
:1001D00094469646203922BFA0E80C50A0E80C5067
:1001E000B1F12001BFF4F7AF090728BFA0E80C5018
:1001F00048BF0CC05DF804EB890028BF40F8042B11
:1002000008BF704748BF20F8022B11F0804F18BF7D
:1002100000F8012B7047704770477047754600F033
:100220002BF8AE4605006946534620F00700854688
:1002300018B020B5FFF7B6FFBDE820404FF000062C
:100240004FF000074FF000084FF0000B21F00701BE
:10025000AC46ACE8C009ACE8C009ACE8C009ACE801
:10026000C0098D46704710B50446AFF300802046A4
:10027000BDE81040FFF781BF00487047B80000207C
:1002800001491820ABBEFEE7260002007047FEE7DA
:10029000704772B6FEE7000070B5044600F008F93A
:1002A0000546601C02D004480078044400F000F9C0
:1002B000401BA042FAD370BD600000202DE9F84F2A
:1002C000DFF8B8910024A9F1040B23460F2709F1A8
:1002D000040AABF1040EC9E00125A5402A40AA4258
:1002E0007DD1674ED1F804C0ACEB0608B44532D0DE
:1002F00014DCBCF1030F3AD009DCBCF1000F2AD0AA
:10030000BCF1010F1CD0BCF1020F31D11DE0BCF1DA
:10031000110F17D0BCF1120F2AD119E0B8F5881FC0
:1003200019D006DCB8F5803F15D0B8F5801F1FD175
:1003300011E0B8F5001F0ED0B8F5041F18D10AE07F
:10034000CB6815E0CB681B1D12E0CB6808330FE0CB
:10035000CB680C330CE08B682BB1012B4FF00803FA
:1003600003D0456104E0042302E0056100E00023BE
:10037000FF2A01D8064601E000F104064FEA840591
:1003800001D9A5F12005D6F8008007FA05FC28EA76
:100390000C0803FA05F548EA0508C6F800804D6820
:1003A000ED0062D5374DAE6946F00106AE61AD692C
:1003B00024F0030605F001050095334D06EB050C0E
:1003C000DCF80850A607360F07FA06F825EA0805F4
:1003D000DFF8B880404503D14FF0000817E044E053
:1003E000DFF8AC80404502D14FF001080FE0DFF8A4
:1003F000A480404502D14FF0020808E0DFF8988061
:10040000404502D14FF0030801E04FF0040808FA1C
:1004100006F848EA0508CCF808804D68D9F800606D
:10042000ED024D4601D5164300E096432E604D681F
:10043000DAF80060AD02554601D5164300E0964358
:100440002E604D68DBF80060AD035D4601D51643B4
:1004500000E096432E604D68DEF80060ED037546BF
:1004600001D5164300E096432E60641C0D682A46B1
:10047000E5407FF431AFBDE8F88F0000080401408B
:10048000000011100010024000000140000801406F
:10049000000C014000100140001401408068084039
:1004A00000D0012070470AB1016170470904FBE7E1
:1004B00001488068704700006000002002488168A1
:1004C000027811448160704760000020074810B531
:1004D000016841F010010160032000F075F80F2061
:1004E00000F006F800F024F8002010BD00200240C3
:1004F00070B50D4D04464FF47A712878B1FBF0F0D9
:100500000A490968B1FBF0F000F0BCFA48B9102CB8
:1005100007D200222146501E00F036F800206C6001
:1005200070BD012070BD0000600000206C00002044
:100530000C4808B5816941F001018161816901F0D0
:1005400001010091C16941F08051C161C06900F0B1
:10055000805000900448416821F0E06141F0007152
:10056000416008BD0010024000000140002809DB86
:1005700000F01F02012191404009800000F1E020BD
:10058000C0F8001170470000F0B40E4B1B680C4619
:10059000C3F30223C3F10705042D00D90425191D57
:1005A000072901D2002300E0DB1E012606FA05F12F
:1005B000491E214099409E40761E16403143F0BCB2
:1005C00001F0C8B80CED00E0064900F00702086829
:1005D0004FF6FF03184040EA0220034A1043086028
:1005E000704700000CED00E00000FA052DE9F0472F
:1005F0000F46050061D0434E306800F00700B84256
:1006000009D2306820F0070038433060306800F0CD
:100610000700B84251D128683B4C810712D54007EA
:1006200003D5606840F4E06060602878000703D577
:10063000606840F4605060606068A96820F0F00075
:10064000084360602878C00728D06868012810D067
:100650002168022810D0890700292EDA616821F06C
:10066000030101436160FFF723FF804641F28839AF
:100670000DE021688903EFE78901EDE7FFF718FF37
:10068000A0EB0801494502D90320BDE8F087606866
:10069000696800F00C00B0EB810FEFD1306800F01A
:1006A0000700B8420BD9306820F0070038433060AB
:1006B000306800F00700B84201D00120E5E7287853
:1006C000400705D56068E96820F4E0600843606091
:1006D0002878000706D56068296920F4605040EA50
:1006E000C100606000F018F86168084AC1F30311A6
:1006F000515CC8400649086006480068FFF7F8FEEC
:100700000020C2E70020024000100240E619000865
:100710006C000020640000200E4A51680E4801F071
:100720000C03042B11D0082B0FD10C48C1F38343C9
:10073000C903C05C0AD55168084AC1F34041921E02
:10074000515C054A5043B0FBF1F0704704494843FF
:10075000704700000010024000127A00D61900080D
:1007600000093D002DE9F84F040070D02078C04DFD
:10077000C00749D06868C0F38100012807D06868C5
:10078000C0F38100022809D16868C00306D5286833
:10079000800339D560680028E7D035E06068B0F59F
:1007A000803F0BD010B1B0F5A02F11D0286820F4F5
:1007B00080302860286820F4802002E0286840F417
:1007C00080302860606890B1FFF772FE06460AE04C
:1007D000286840F480202860F0E700BFFFF768FE3B
:1007E000801B642873D828688003F7D50CE0FFF7D6
:1007F0005FFE064605E000BFFFF75AFE801B642837
:10080000F0D828688003F7D420789A4E80074FF0FC
:1008100001094FF0000839D5686810F00C0F07D0B7
:100820006868C0F38100022809D16868C00306D453
:100830002868800714D52069012808D110E02069B4
:10084000B0B1C6F80090FFF733FE074605E00AE1B5
:10085000FFF72EFEC01B0228C4D828688007F7D5F2
:100860002868616920F0F80040EAC10028600DE0C6
:10087000C6F80080FFF71CFE074604E0FFF718FEED
:10088000C01B022823D828688007F7D420780007E7
:100890002CD57948A169D9B1C0F80090FFF708FEBE
:1008A000074604E0FFF704FEC01B02280FD8686A61
:1008B0008007F7D571484FF4FA510068B0FBF1F0AA
:1008C000009000BF0098411E0091FAD20EE080E037
:1008D000C0F80080FFF7ECFD074604E0FFF7E8FDF5
:1008E000C01B022875D8686A8007F7D420784007B3
:1008F00060D5E8690027C00008D4E86940F080505E
:10090000E861E869012700F0805000905C480168C8
:10091000C90513D40168834641F480710160FFF773
:10092000C7FD824606E000BFFFF7C2FDA0EB0A004C
:1009300064284ED8DBF80000C005F5D5E068012832
:100940000AD008B1052813D0286A20F001002862D7
:10095000286A20F0040002E0286A40F001002862C2
:10096000E06841F2883B98B1FFF7A2FD82460BE0B8
:10097000286A40F004002862EEE700BFFFF798FD08
:10098000A0EB0A0159455AD8286A8007F6D50CE031
:10099000FFF78EFD824605E0FFF78AFDA0EB0A0116
:1009A00059454CD8286A8007F6D41FB1E86920F071
:1009B0008050E861E06988B36968C1F38101022968
:1009C00044D00228C6F8608004D0FFF771FD0446C9
:1009D00038E034E0FFF76CFD074604E0FFF768FD00
:1009E000C01B02282BD828688001F7D4206AB0F5F4
:1009F000803F05D16868A16820F400300843686032
:100A0000D4E908010843696821F474110843686057
:100A1000C6F86090FFF74CFD044606E025E000BFF5
:100A2000FFF746FD001B022809D828688001F7D58A
:100A30001BE000BFFFF73CFD001B022802D903208A
:100A4000BDE8F88F28688001F4D40EE00128F7D0C3
:100A50006868226A00F48031914204D1616A00F42E
:100A60007010884201D00120EAE70020E8E700008A
:100A70000010024000004242800442426C0000200C
:100A80000070004010B5401EB0F1807F01D30120FE
:100A900010BD4FF0E02460610F21601700F05AFE96
:100AA0000020A06107202061002010BD7047704722
:100AB00070B590F83C20012A26D0012480F83C40F3
:100AC000022280F83D2003685A689D6822F0700673
:100AD0000A6832435A600D4B02689A4208D0B2F15C
:100AE000804F05D00A4B9A4202D00A4B9A4204D159
:100AF000496825F080031943916080F83D4000214A
:100B000080F83C10084670BD022070BD002C0140EA
:100B1000000400400008004010B5040003D094F821
:100B20003D0010B107E0012010BD002084F83C001A
:100B3000204600F01FF8022084F83D00211D2068A7
:100B400000F0ECFC012084F8460084F83E0084F8B4
:100B50003F0084F8400084F8410084F8420084F8A3
:100B6000430084F8440084F8450084F83D000020E8
:100B700010BD000008B50068B0F1804F12D10A48DE
:100B8000C16941F00101C161C069002200F00100AA
:100B9000009011461C20FFF7F7FCBDE808401C2020
:100BA000FFF7E4BC08BD00000010024070B5044629
:100BB00090F83C000025012817D0012684F83C60FD
:100BC000022084F83D002068826822F0770222F437
:100BD0007F4282600868502838D00DDC20284FD032
:100BE00005DC90B3102811D14AE0022070BD3028F6
:100BF00046D040280AD13BE060282FD070280DD085
:100C0000B0F5805F03D0B0F5005F12D0012584F805
:100C10003D60002084F83C00284670BDCB68D1E9D7
:100C20000121206800F0BDFC2068816841F0770157
:100C300009E0CB68D1E90121206800F0B2FC20680E
:100C4000816841F480418160E1E719E0CA68496840
:100C5000206800F05BFD5021206806E0CA68496802
:100C6000206800F064FD6021206800F0A4FCCEE75D
:100C7000CA684968206800F049FD40212068F4E70F
:100C8000226801461046F0E7704770B504460068D8
:100C900001694FF00005C943890715D4C168C943EC
:100CA000890711D4E91E016101202077206880693D
:100CB0008007204602D0FFF7E7FF04E000F0BCF811
:100CC000204600F04EF9257720680169C94349079D
:100CD00017D4C168C943490713D46FF004010161F7
:100CE000022020772068806910F4407F204602D0DF
:100CF000FFF7CAFF04E000F09FF8204600F031F94A
:100D0000257720680169C943090716D4C168C9431A
:100D1000090712D46FF008010161042020772068D0
:100D2000C0698007204602D0FFF7AEFF04E000F064
:100D300083F8204600F015F9257720680169C9433A
:100D4000C90617D4C168C943C90613D46FF010018E
:100D50000161082020772068C06910F4407F204698
:100D600002D0FFF791FF04E000F066F8204600F0A3
:100D7000F8F8257720680169C943C90708D1C16817
:100D8000C943C90704D1891E0161204600F070F9EA
:100D900020680169C943090609D4C168C943090625
:100DA00005D46FF0800101612046FFF77FFE2068C7
:100DB0000169C943490609D4C168C943490605D434
:100DC0006FF040010161204600F053F9206801698D
:100DD000C94389060BD4C168C943890607D46FF09B
:100DE000200101612046BDE87040FFF760BE70BD84
:100DF00000B585B000210091019102910391006836
:100E0000B0F1804F11D10A48816941F0040181613C
:100E10008069694600F004000490012000900220DF
:100E2000019003900348FFF749FA05B000BD0000A8
:100E30000010024000080140704770B5044690F869
:100E40003C0000260D4601280FD0012084F83C000C
:100E50006AB1042A1DD0082A2FD00C2A3FD00126BF
:100E6000002084F83C00304670BD022070BD206830
:100E700000F0AAFB2068816941F0080181612068C7
:100E8000816921F004018161206881692A69114327
:100E900011E0206800F0C0FB2068816941F4006126
:100EA00081612068816921F48061816120688169A4
:100EB0002A6941EA02218161D2E7206800F0D8FB6B
:100EC0002068C16941F00801C1612068C16921F051
:100ED0000401C1612068C1692A69114311E02068D9
:100EE00000F0F2FB2068C16941F40061C161206833
:100EF000C16921F48061C1612068C1692A6941EA40
:100F00000221C161ACE710B5040003D094F83D00A4
:100F100010B107E0012010BD002084F83C002046FD
:100F200000F01EF8022084F83D00211D206800F02A
:100F3000F5FA012084F8460084F83E0084F83F006A
:100F400084F8400084F8410084F8420084F84300AB
:100F500084F8440084F8450084F83D00002010BD6A
:100F60007047704710B50446022249B104290ED0DB
:100F7000082913D094F84100012816D0012010BD93
:100F800094F83E000128F9D184F83E200FE094F84F
:100F90003F000128F2D184F83F2008E094F8400097
:100FA0000128EBD184F8402001E084F8412001229F
:100FB000206800F0E9FA0F492068884203D1426CAA
:100FC00042F4004242642068884208D0B0F1804F69
:100FD00005D00949884202D00849884204D1816875
:100FE00001F00701062903D0016841F00101016009
:100FF000002010BD002C014000040040000800400B
:1010000030B504460D460068002200F0BDFA174BCB
:1010100041F2111120688A10984209D1036A0B42EB
:1010200006D1036A134203D1436C23F400434364A3
:101030002068036A0B4206D1016A114203D101689C
:1010400021F00101016001203DB1042D08D0082DDF
:1010500009D084F84100002030BD84F83E00FAE752
:1010600084F83F00F7E784F84000F4E7002C0140E3
:1010700070477047FEE70000F0B585B000242948AE
:101080000094019402940394816941F010018161FC
:10109000816901F010010491816941F020018161B1
:1010A000816901F020010491816941F004018161AD
:1010B000816901F004010491816941F008018161B5
:1010C0008069194F00F00800049000224FF6F37178
:1010D0003846FFF7E8F9012204213846FFF7E3F923
:1010E0004FF6FE7002258DE8310069460F48FFF784
:1010F000E5F840F2FF100126CDE900060320CDE916
:10110000024069463846FFF7D9F84FF6F070CDE94E
:10111000000669463846CDE90245FFF7CFF805B02D
:10112000F0BD000000100240000C0140000801402A
:1011300010B58EB000240794089409940A940B9477
:101140001C2168460C94FFF73FF81F484FF0804180
:10115000016040F23111C0E901146421C0E90314B7
:1011600080218161FFF7D8FC08B1FFF792F84FF4B6
:101170008050079007A91448FFF718FD08B1FFF742
:1011800088F81148FFF7BFFE08B1FFF782F80B940B
:101190000BA90D480C94FFF78BFC08B1FFF779F809
:1011A000602000903220CDE9010400226946064803
:1011B0000494FFF742FE08B1FFF76BF80248FFF70F
:1011C00017FE0EB010BD000070000020FEE7FEE725
:1011D00070B500240021204600F0EDF80025002025
:1011E00000F052F96D1CEDB2802DF8D3641CE4B20E
:1011F000082CEFD370BD0000124810B5816986B08D
:1012000041F00801816180690F4C00F008000490F2
:10121000002002904FF440700090112001900320B4
:10122000039069462046FFF749F801221102204643
:10123000FFF739F9012251022046FFF734F906B0D1
:1012400010BD000000100240000C01402DE9F047E5
:10125000164E002407464FF080084FF40079B5156C
:1012600028FA04F0384201D0012200E00022494669
:101270003046FFF718F9012229463046FFF713F9E7
:10128000002229463046FFF70EF9641CE4B2082C10
:10129000E6D3012229463046FFF705F929463046B4
:1012A000BDE8F0470022FFF7FEB80000000C014047
:1012B00070B501220B4D540221462846FFF7F3F882
:1012C0000122160231462846FFF7EDF8002221469A
:1012D0002846FFF7E8F831462846BDE8704000226E
:1012E000FFF7E1B8000C014070B50A4D4FF40074EF
:1012F000002221462846FFF7D6F80122110228468F
:10130000FFF7D1F821462846BDE870400122FFF7DB
:10131000CAB80000000C014010B5C820FEF7BCFFA1
:10132000FFF76AFFAE2000F09EF8D52000F09BF892
:10133000802000F098F8A82000F095F83F2000F0F9
:1013400092F8D32000F08FF8002000F08CF84020B5
:1013500000F089F8A12000F086F8C82000F083F89A
:10136000DA2000F080F8122000F07DF8812000F0F3
:101370007AF8CF2000F077F8D92000F074F8F12047
:1013800000F071F8DB2000F06EF8302000F06BF810
:10139000A42000F068F8A62000F065F88D2000F089
:1013A00062F8142000F05FF8AF2000F05CF8BDE8B0
:1013B0001040FFF70DBF10B50C4640F0B00000F034
:1013C00052F8102040EA141000F04DF804F00F001D
:1013D000BDE8104000F047B82DE9F0410746CE00C7
:1013E0004000083E801E15464FF0FF38F1B2C0B2F3
:1013F000FFF7E1FF1148002400EB05152819A0F5BF
:10140000805090F8000E00F03FF8641CE4B2082C05
:10141000F4D308EB4700F1B2C0B2FFF7CCFF0024D1
:101420002819A0F5805090F8080E00F02DF8641CE3
:10143000E4B2082CF4D3BDE8F0810000F6190008EE
:101440002DE9F04115460E460746002406E0301906
:10145000C1B23846FFF7C0FF641CE4B22A5D002A1F
:10146000F5D1BDE8F08110B50446FFF721FF7820E3
:10147000FFF7ECFE0020FFF7E9FE2046FFF7E6FE4F
:10148000BDE81040FFF730BF10B50446FFF710FF6E
:101490007820FFF7DBFE4020FFF7D8FE2046FFF75D
:1014A000D5FEBDE81040FFF71FBF70477047FFF73C
:1014B00005B830B58FB028216846FEF785FE1421A7
:1014C0000AA8FEF781FE0121080400240491CDE959
:1014D0000010CDE908040294022507956846FFF73D
:1014E00041F908B172B6FEE70F20CDE90A05802068
:1014F0000C90C000CDE90D0400210AA8FFF776F892
:10150000002801D072B6FEE70FB030BD7047000072
:101510000148FFF7BABB000070000020F0B5026878
:10152000164B174C174D4FF08047984205D0B842E4
:1015300003D0A04201D0A84203D122F070064A682D
:101540003243984205D0B84203D0A04201D0A8420D
:1015500003D122F44074CA6822434C6922F080020D
:10156000224302608A68C2620A688262984201D19C
:101570000969016301214161F0BD0000002C0140B7
:10158000000400400008004010B501F01F030121D5
:10159000046A99408C430462016A9A4011430162D3
:1015A00010BD10B5846842EA032224F47F440A4344
:1015B0002243826010BD826822F070020A4342F02A
:1015C000070181607047000030B5036A026A22F0AB
:1015D000010202624268846924F073050C682C439E
:1015E00023F002058B682B430A4DA8420BD123F050
:1015F0000805CB6822F440722B434D6923F00403A5
:1016000015438A692A4342608461496841630362E1
:1016100030BD0000002C014030B5026A036A23F09F
:1016200010030362436884690D6824F4E64444EAC5
:1016300005248D6822F0200242EA05120B4DA842D3
:101640000ED1CD6822F0800242EA05124D6923F4E2
:10165000406343EA85038D6922F0400243EA850333
:101660004360846149688163026230BD002C01409F
:1016700030B5036A026A22F4807202624268C46969
:1016800023F4007324F073050C682C438D6843EA3F
:1016900005230C4DA8420ED1CD6823F4006343EA24
:1016A00005234D6922F4405242EA05128D6923F464
:1016B000806342EA05124260C4614968C163036203
:1016C00030BD0000002C014030B5046A026A22F4EB
:1016D000805202624268C3690D6823F4E64343EA1C
:1016E00005238D6824F4005444EA0534064DA842CD
:1016F00004D14D6922F4804242EA85124260C361FE
:1017000049680164046230BD002C014010B5036AD1
:10171000046A24F001040462846924F0F00444EAB9
:10172000021423F00A020A438461026210BD10B55C
:10173000036A046A24F010040462846923F0A0039D
:1017400024F4704444EA023243EA011182610162E6
:1017500010BDFEE70907090E002804DB00F1E020B8
:1017600080F80014704700F00F0000F1E02080F8CE
:10177000141D704786B0FEF7A9FEFFF79AFEFFF72B
:101780007BFCFFF7D5FCFFF7C7FD7748816941F087
:1017900004018161816901F004010491816941F0D2
:1017A0000801816180694FF0000800F00800CDF861
:1017B0000480CDE90380FE20DFF8B0A1022600906E
:1017C0004446694602965046FEF778FD0127009789
:1017D000CDE90146664C69462046FEF76FFD0121C2
:1017E00064A20846FFF72CFE65A201210220FFF744
:1017F00027FE66A201210320FFF722FEA146664CC8
:1018000001214D464846FEF749FE01282AD1142001
:10181000FEF742FD01212846FEF740FE012821D1B6
:101820006078401C40B26070022801DD84F80180BD
:101830005AA201210220FFF703FE5BA20121022030
:10184000FFF7FEFD544894F90110243050F8212090
:1018500007210220FFF7F4FD01212846FEF71EFEB6
:101860000128F9D084F80080022155465046FEF741
:1018700015FE012852D004212846FEF70FFE01284C
:101880004ED008212846FEF709FE01284BD0102132
:101890002846FEF703FE012847D020212846FEF700
:1018A000FDFD012844D040212846FEF7F7FD012820
:1018B00040D080212846FEF7F1FD01283CD0207859
:1018C00080B300BFCDE90076694628460396FEF74F
:1018D000F5FC314894F90110303000EB011120780B
:1018E000334D31F810002968886200212846FFF73F
:1018F00039FB2968322048632EA201210320FFF71B
:101900009FFD25482178001D50F821200A21032041
:10191000FFF796FD0A20FEF7BFFC71E72770D1E7BD
:101920002670CFE70AE0032000E004202070C9E71A
:101930000520FBE70620F9E70720F7E700211C4810
:10194000FFF75EFB00976946284601970396FEF76E
:10195000B5FC012211462846FEF7A5FD19A201217A
:101960000320FFF76DFD4BE7001002400008014027
:10197000000C014053544D3332205069616E6F00AA
:101980004D6F64653A204D69642000005741495409
:10199000494E472E2E2E0000000000204D6F64653A
:1019A0003A202020202020004D6F64653A2000005E
:1019B00070000020506C6179696E673A2020202009
:1019C0002020000057414954494E472E2E2E2020FA
:1019D00020200000010202030405060708090A0B83
:1019E0000C0D0E0F1010000000000000000001029E
:1019F00003040607080900000000000000000000C2
:101A0000000000000000000000F8000000000000DE
:101A100000333000000000100C06100C060000001F
:101A200000000000000040C07840C0784000043F43
:101A300004043F040400007088FC08300000001813
:101A400020FF211E0000F008F000E0180000002137
:101A50001C031E211E0000F00888700000001E21DB
:101A600023241927211010160E000000000000008A
:101A7000000000000000000000E018040200000068
:101A800000071820400000020418E0000000004099
:101A9000201807000000404080F080404000020213
:101AA000010F01020200000000F00000000001012F
:101AB000011F01010100000000000000000080B0D3
:101AC00070000000000000000000000000000001A5
:101AD00001010101010100000000000000000030D0
:101AE000300000000000000000008060180400606A
:101AF00018060100000000E010080810E000000FC8
:101B0000102020100F00001010F80000000000202E
:101B1000203F202000000070080808887000003076
:101B2000282422213000003008888848300000181E
:101B3000202020110E000000C02010F80000000737
:101B40000424243F240000F80888880808000019AD
:101B5000212020110E0000E0108888180000000FDE
:101B6000112020110E0000380808C83808000000B5
:101B7000003F000000000070880808887000001C0A
:101B8000222121221C0000E010080810E0000000C3
:101B9000312222110F00000000C0C0000000000030
:101BA0000030300000000000008000000000000055
:101BB000806000000000000080402010080000014C
:101BC000020408102000404040404040400004040F
:101BD00004040404040000081020408000000020D9
:101BE000100804020100007048080808F000000016
:101BF000003036010000C030C828E810E0000718A7
:101C0000272423140B000000C038E0000000203C13
:101C100023020227382008F8888888700000203FB7
:101C2000202020110E00C0300808080838000718CE
:101C300020202010080008F808080810E000203FC5
:101C4000202020100F0008F88888E8081000203FA6
:101C500020202320180008F88888E8081000203F7A
:101C6000200003000000C0300808083800000718F2
:101C70002020221E020008F808000008F808203F73
:101C8000210101213F20000808F808080000002079
:101C9000203F2020000000000808F8080800C0804D
:101CA00080807F00000008F888C028180800203FC6
:101CB00020012638200008F8080000000000203F1E
:101CC00020202020300008F8F800F8F80800203F15
:101CD000003F003F200008F830C00008F808203F0F
:101CE000200007183F00E01008080810E0000F105F
:101CF000202020100F0008F808080808F000203FF6
:101D0000210101010000E01008080810E0000F1890
:101D1000242438504F0008F8888888887000203FB5
:101D20002000030C302000708808080838000038B4
:101D3000202121221C00180808F8080818000000BB
:101D4000203F2000000008F808000008F808001FE5
:101D5000202020201F000878880000C838080000D4
:101D600007380E010000F80800F80008F800033CEE
:101D70000700073C030008186880806818082030B6
:101D80002C03032C30200838C800C8380800000095
:101D9000203F2000000010080808C838080020383C
:101DA000262120201800000000FE02020200000090
:101DB000007F40404000000C30C0000000000000E8
:101DC00000010638C00000020202FE0000000040D0
:101DD00040407F00000000000402020204000000F6
:101DE00000000000000000000000000000008080F3
:101DF00080808080808000020204000000000000DB
:101E000000000000000000008080808000000019B9
:101E1000242222223F2008F8008080000000003F9A
:101E2000112020110E000000008080800000000EB4
:101E3000112020201100000000808088F800000E92
:101E4000112020103F200000808080800000001FB3
:101E5000222222221300008080F088888818002027
:101E6000203F202000000000808080808000006BE8
:101E700094949493600008F8008080800000203FD4
:101E8000210000203F2000809898000000000020E2
:101E9000203F20200000000000809898000000C033
:101EA0008080807F000008F8000080808000203F54
:101EB00024022D302000000808F800000000002057
:101EC000203F202000008080808080808000203F94
:101ED00020003F20003F8080008080800000203F65
:101EE000210000203F200000808080800000001F33
:101EF000202020201F00808000808000000080FFC4
:101F0000A12020110E000000008080808000000EC3
:101F1000112020A0FF808080800080808000202011
:101F20003F2120000100000080808080800000337D
:101F3000242424241900008080E080800000000018
:101F4000001F202000008080000000808000001F13
:101F5000202020103F2080808000008080800001B1
:101F60000E300806010080800080008080800F30E5
:101F70000C030C300F000080800080808000002067
:101F8000312E0E3120008080800000808080808192
:101F90008E70180601000080808080808000002103
:101FA000302C2221300000000000807C0202000062
:101FB0000000003F404000000000FF000000000063
:101FC0000000FF0000000002027C800000000040D2
:101FD000403F00000000000601010202040400006E
:101FE00000000000000000003420466120000000D6
:101FF00036204C61200000004D6964200000000084
:10200000322052652000000033204D69200000007E
:1020100037205369200000003120446F2000000069
:102020004C6F7720000000002000000048696768BE
:10203000000000003520536F6C0000005C20000899
:10204000000000207000000028010008CC200008DB
:1020500070000020A80600004401000800010000F4
:102060002820000818200008002000080820000888
:10207000E81F000834200008F01F000810200008A6
:1020800020200008F81F00082C2000080000300164
:102090001001F200E400CC00B400A00000009800A1
:1020A00088007900720066005A00500000004C0061
:1020B00044003C00390033002D00280001000000DE
:0C20C00010000000000000000024F400EC
:04000005080000ED02
:00000001FF
