:020000040800F2
:10000000C806002089010008871000082D0F00088D
:10001000851000088F02000813130008000000007C
:100020000000000000000000000000008B1000082D
:100030009102000800000000891000088D100008DF
:10004000A3010008A3010008A3010008A301000800
:10005000A3010008A3010008A3010008A3010008F0
:10006000A3010008A3010008A3010008A3010008E0
:10007000A3010008A3010008A3010008A3010008D0
:10008000A3010008A3010008A3010008A3010008C0
:10009000A3010008A3010008A3010008A3010008B0
:1000A000A3010008A3010008A3010008A3010008A0
:1000B000D1100008A3010008A3010008A301000853
:1000C000A3010008A3010008A3010008A301000880
:1000D000A3010008A3010008A3010008A301000870
:1000E000A3010008A3010008A301000800F002F822
:1000F00000F03AF80AA090E8000C82448344AAF188
:100100000107DA4501D100F02FF8AFF2090EBAE885
:100110000F0013F0010F18BFFB1A43F0010318473B
:100120002415000044150000103A24BF78C878C197
:10013000FAD8520724BF30C830C144BF04680C60ED
:10014000704700000023002400250026103A28BF35
:1001500078C1FBD8520728BF30C148BF0B60704739
:100160001FB51FBD10B510BD00F058F81146FFF7C0
:10017000F7FF01F0DFF800F076F803B4FFF7F2FFC5
:1001800003BC00F07DF8000009488047094800479B
:10019000FEE7FEE7FEE7FEE7FEE7FEE7FEE7FEE737
:1001A000FEE7FEE704480549054A064B7047000094
:1001B000CD100008ED000008C8000020C80600208F
:1001C000C8020020C80200204FF0000200B513460C
:1001D00094469646203922BFA0E80C50A0E80C5067
:1001E000B1F12001BFF4F7AF090728BFA0E80C5018
:1001F00048BF0CC05DF804EB890028BF40F8042B11
:1002000008BF704748BF20F8022B11F0804F18BF7D
:1002100000F8012B7047704770477047754600F033
:100220002BF8AE4605006946534620F00700854688
:1002300018B020B5FFF7B6FFBDE820404FF000062C
:100240004FF000074FF000084FF0000B21F00701BE
:10025000AC46ACE8C009ACE8C009ACE8C009ACE801
:10026000C0098D46704710B50446AFF300802046A4
:10027000BDE81040FFF781BF0048704768000020CC
:1002800001491820ABBEFEE7260002007047FEE7DA
:100290007047000070B5194D044600F001020121BD
:1002A000284600F024F9C4F340020221284600F059
:1002B0001EF9C4F380020421284600F018F9C4F3A3
:1002C000C0020821284600F012F9C4F300121021E0
:1002D000284600F00CF9C4F340122021284600F013
:1002E00006F9C4F380124021284600F000F9E20923
:1002F0002846BDE87040802100F0F9B8000C0140AC
:1003000072B6FEE72DE9F84FDFF8B8910024A9F1A5
:10031000040B23460F2709F1040AABF1040EC9E0D0
:100320000125A5402A40AA427DD1674ED1F804C0DC
:10033000ACEB0608B44532D014DCBCF1030F3AD064
:1003400009DCBCF1000F2AD0BCF1010F1CD0BCF1BC
:10035000020F31D11DE0BCF1110F17D0BCF1120F0B
:100360002AD119E0B8F5881F19D006DCB8F5803F0E
:1003700015D0B8F5801F1FD111E0B8F5001F0ED0C1
:10038000B8F5041F18D10AE0CB6815E0CB681B1D37
:1003900012E0CB6808330FE0CB680C330CE08B68BD
:1003A0002BB1012B4FF0080303D0456104E0042377
:1003B00002E0056100E00023FF2A01D8064601E0C3
:1003C00000F104064FEA840501D9A5F12005D6F80D
:1003D000008007FA05FC28EA0C0803FA05F548EA4C
:1003E0000508C6F800804D68ED0062D5374DAE694E
:1003F00046F00106AE61AD6924F0030605F0010583
:100400000095334D06EB050CDCF80850A607360FB7
:1004100007FA06F825EA0805DFF8B880404503D159
:100420004FF0000817E044E0DFF8AC80404502D10F
:100430004FF001080FE0DFF8A480404502D14FF0F3
:10044000020808E0DFF89880404502D14FF0030829
:1004500001E04FF0040808FA06F848EA0508CCF86D
:1004600008804D68D9F80060ED024D4601D516436D
:1004700000E096432E604D68DAF80060AD02554604
:1004800001D5164300E096432E604D68DBF800600E
:10049000AD035D4601D5164300E096432E604D68DE
:1004A000DEF80060ED03754601D5164300E0964383
:1004B0002E60641C0D682A46E5407FF431AFBDE82C
:1004C000F88F0000080401400000111000100240E5
:1004D0000000014000080140000C014000100140F4
:1004E000001401408068084000D0012070470AB124
:1004F000016170470904FBE701488068704700000C
:100500001000002002488168027811448160704721
:1005100010000020074810B5016841F0100101608B
:10052000032000F075F80F2000F006F800F024F822
:10053000002010BD0020024070B50D4D04464FF460
:100540007A712878B1FBF0F00A490968B1FBF0F044
:1005500000F000FA48B9102C07D200222146501EA4
:1005600000F036F800206C6070BD012070BD000006
:10057000100000201C0000200C4808B5816941F0E3
:1005800001018161816901F001010091C16941F0BE
:100590008051C161C06900F08050009004484168FA
:1005A00021F0E06141F00071416008BD001002409F
:1005B00000000140002809DB00F01F0201219140EA
:1005C0004009800000F1E020C0F8001170470000F1
:1005D000F0B40E4B1B680C46C3F30223C3F10705AE
:1005E000042D00D90425191D072901D2002300E09C
:1005F000DB1E012606FA05F1491E214099409E4066
:10060000761E16403143F0BC00F084BE0CED00E0D5
:10061000064900F0070208684FF6FF03184040EA59
:100620000220034A10430860704700000CED00E010
:100630000000FA052DE9F84F040070D02078C04D75
:10064000C00749D06868C0F38100012807D06868F6
:10065000C0F38100022809D16868C00306D5286864
:10066000800339D560680028E7D035E06068B0F5D0
:10067000803F0BD010B1B0F5A02F11D0286820F426
:1006800080302860286820F4802002E0286840F448
:1006900080302860606890B1FFF72EFF06460AE0C0
:1006A000286840F480202860F0E700BFFFF724FFAF
:1006B000801B642873D828688003F7D50CE0FFF707
:1006C0001BFF064605E000BFFFF716FF801B6428EE
:1006D000F0D828688003F7D420789A4E80074FF02E
:1006E00001094FF0000839D5686810F00C0F07D0E9
:1006F0006868C0F38100022809D16868C00306D485
:100700002868800714D52069012808D110E02069E5
:10071000B0B1C6F80090FFF7EFFE074605E00AE12A
:10072000FFF7EAFEC01B0228C4D828688007F7D567
:100730002868616920F0F80040EAC10028600DE0F7
:10074000C6F80080FFF7D8FE074604E0FFF7D4FEA6
:10075000C01B022823D828688007F7D42078000718
:100760002CD57948A169D9B1C0F80090FFF7C4FE33
:10077000074604E0FFF7C0FEC01B02280FD8686AD6
:100780008007F7D571484FF4FA510068B0FBF1F0DB
:10079000009000BF0098411E0091FAD20EE080E068
:1007A000C0F80080FFF7A8FE074604E0FFF7A4FEAC
:1007B000C01B022875D8686A8007F7D420784007E4
:1007C00060D5E8690027C00008D4E86940F080508F
:1007D000E861E869012700F0805000905C480168FA
:1007E000C90513D40168834641F480710160FFF7A5
:1007F00083FE824606E000BFFFF77EFEA0EB0A0004
:1008000064284ED8DBF80000C005F5D5E068012863
:100810000AD008B1052813D0286A20F00100286208
:10082000286A20F0040002E0286A40F001002862F3
:10083000E06841F2883B98B1FFF75EFE82460BE02C
:10084000286A40F004002862EEE700BFFFF754FE7C
:10085000A0EB0A0159455AD8286A8007F6D50CE062
:10086000FFF74AFE824605E0FFF746FEA0EB0A01CD
:1008700059454CD8286A8007F6D41FB1E86920F0A2
:100880008050E861E06988B36968C1F38101022999
:1008900044D00228C6F8608004D0FFF72DFE04463D
:1008A00038E034E0FFF728FE074604E0FFF724FEB7
:1008B000C01B02282BD828688001F7D4206AB0F525
:1008C000803F05D16868A16820F400300843686063
:1008D000D4E908010843696821F474110843686089
:1008E000C6F86090FFF708FE044606E025E000BF6A
:1008F000FFF702FE001B022809D828688001F7D5FF
:100900001BE000BFFFF7F8FD001B022802D90320FF
:10091000BDE8F88F28688001F4D40EE00128F7D0F4
:100920006868226A00F48031914204D1616A00F45F
:100930007010884201D00120EAE70020E8E70000BB
:100940000010024000004242800442421C0000208D
:100950000070004010B5401EB0F1807F01D301202F
:1009600010BD4FF0E02460610F21601700F0D2FC51
:100970000020A06107202061002010BD7047704753
:1009800070B590F83C20012A26D0012480F83C4024
:10099000022280F83D2003685A689D6822F07006A4
:1009A0000A6832435A600D4B02689A4208D0B2F18D
:1009B000804F05D00A4B9A4202D00A4B9A4204D18A
:1009C000496825F080031943916080F83D4000217B
:1009D00080F83C10084670BD022070BD002C01401C
:1009E000000400400008004010B5040003D094F853
:1009F0003D0010B107E0012010BD002084F83C004C
:100A0000204600F01FF8022084F83D00211D2068D8
:100A100000F064FB012084F8460084F83E0084F86E
:100A20003F0084F8400084F8410084F8420084F8D4
:100A3000430084F8440084F8450084F83D00002019
:100A400010BD000008B50068B0F1804F12D10A480F
:100A5000C16941F00101C161C069002200F00100DB
:100A6000009011461C20FFF7B3FDBDE808401C2094
:100A7000FFF7A0BD08BD00000010024090F83D1037
:100A8000012901D001207047022180F83D10016842
:100A9000CA6842F00102CA6000680B49884208D067
:100AA000B0F1804F05D00949884202D008498842F8
:100AB00004D1816801F00701062903D0016841F0E3
:100AC0000101016000207047002C0140000400403B
:100AD0000008004070B5044690F83C00002501284D
:100AE00017D0012684F83C60022084F83D0020687D
:100AF000826822F0770222F47F42826008685028E0
:100B000038D00DDC20284FD005DC90B3102811D14F
:100B10004AE0022070BD302846D040280AD13BE090
:100B200060282FD070280DD0B0F5805F03D0B0F5CD
:100B3000005F12D0012584F83D60002084F83C005D
:100B4000284670BDCB68D1E90121206800F009FB7F
:100B50002068816841F0770109E0CB68D1E9012183
:100B6000206800F0FEFA2068816841F480418160CD
:100B7000E1E719E0CA684968206800F0A7FB502146
:100B8000206806E0CA684968206800F0B0FB602170
:100B9000206800F0F0FACEE7CA684968206800F0E3
:100BA00095FB40212068F4E7226801461046F0E7F3
:100BB000704770B50446006801694FF00005C943ED
:100BC000890715D4C168C943890711D4E91E016199
:100BD00001202077206880698007204602D0FFF737
:100BE000E7FF04E000F0BCF8204600F04EF925775E
:100BF00020680169C943490717D4C168C943490737
:100C000013D46FF00401016102202077206880690D
:100C100010F4407F204602D0FFF7CAFF04E000F046
:100C20009FF8204600F031F9257720680169C94313
:100C3000090716D4C168C943090712D46FF0080127
:100C40000161042020772068C0698007204602D017
:100C5000FFF7AEFF04E000F083F8204600F015F93E
:100C6000257720680169C943C90617D4C168C943FB
:100C7000C90613D46FF010010161082020772068A5
:100C8000C06910F4407F204602D0FFF791FF04E0D6
:100C900000F066F8204600F0F8F825772068016932
:100CA000C943C90708D1C168C943C90704D1891E0E
:100CB0000161204600F038F920680169C94309063E
:100CC00009D4C168C943090605D46FF080010161E8
:100CD0002046FFF753FE20680169C943490609D43D
:100CE000C168C943490605D46FF04001016120463F
:100CF00000F01BF920680169C94389060BD4C1685B
:100D0000C943890607D46FF0200101612046BDE880
:100D10007040FFF734BE70BD00B585B00021009172
:100D20000191029103910068B0F1804F11D10A48FE
:100D3000816941F0040181618069694600F0040025
:100D40000490012000900220019003900348FFF7D7
:100D5000D9FA05B000BD00000010024000080140B3
:100D6000704770B5044690F83C0000260D460128F7
:100D70000FD0012084F83C006AB1042A1DD0082A53
:100D80002FD00C2A3FD00126002084F83C003046AA
:100D900070BD022070BD206800F0F6F920688169FE
:100DA00041F0080181612068816921F004018161BD
:100DB000206881692A69114311E0206800F00CFA6B
:100DC0002068816941F4006181612068816921F4B2
:100DD00080618161206881692A6941EA022181611B
:100DE000D2E7206800F024FA2068C16941F00801C8
:100DF000C1612068C16921F00401C1612068C16935
:100E00002A69114311E0206800F03EFA2068C169A8
:100E100041F40061C1612068C16921F48061C16150
:100E20002068C1692A6941EA0221C161ACE710B5B5
:100E3000040003D094F83D0010B107E0012010BD7C
:100E4000002084F83C00204600F01EF8022084F8C0
:100E50003D00211D206800F041F9012084F8460082
:100E600084F83E0084F83F0084F8400084F8410094
:100E700084F8420084F8430084F8440084F8450074
:100E800084F83D00002010BD7047704710B504463F
:100E9000022249B104290ED0082913D094F8410048
:100EA000012816D0012010BD94F83E000128F9D188
:100EB00084F83E200FE094F83F000128F2D184F836
:100EC0003F2008E094F840000128EBD184F840204E
:100ED00001E084F841200122206800F035F90F4933
:100EE0002068884203D1426C42F400424264206888
:100EF000884208D0B0F1804F05D00949884202D01D
:100F00000849884204D1816801F00701062903D00D
:100F1000016841F001010160002010BD002C01407A
:100F2000000400400008004070477047FEE70000E2
:100F3000F0B585B0002429480094019402940394EC
:100F4000816941F010018161816901F01001049112
:100F5000816941F020018161816901F020010491E2
:100F6000816941F004018161816901F0040104910A
:100F7000816941F0080181618069194F00F0080022
:100F8000049000224FF6F3713846FFF7B0FA0122C1
:100F900004213846FFF7ABFA4FF6FE7002258DE8C4
:100FA000310069460F48FFF7ADF940F2FF10012606
:100FB000CDE900060320CDE9024069463846FFF737
:100FC000A1F94FF6F070CDE9000669463846CDE943
:100FD0000245FFF797F905B0F0BD00000010024090
:100FE000000C01400008014010B58EB000240794A9
:100FF000089409940A940B941C2168460C94FFF7FA
:10100000E3F81F484FF08041016040F23111C0E920
:1010100001146421C0E9031480218161FFF7E4FC1D
:1010200008B1FFF76DF94FF48050079007A91448F5
:10103000FFF750FD08B1FFF763F91148FFF7F7FE1E
:1010400008B1FFF75DF90B940BA90D480C94FFF75D
:1010500097FC08B1FFF754F9602000903220CDE9E9
:1010600001040022694606480494FFF77AFE08B19D
:10107000FFF746F90248FFF74FFE0EB010BD000023
:1010800020000020FEE7FEE770477047FFF73ABAFE
:1010900000B58FB028216846FFF796F814210AA8FA
:1010A000FFF792F801210A0400200491CDE9001213
:1010B000CDE908200290022107916846FFF7BAFAAD
:1010C000002801D072B6FEE70FB000BD70470000E7
:1010D0000148FFF76EBD000020000020F0B5026857
:1010E000164B174C174D4FF08047984205D0B84229
:1010F00003D0A04201D0A84203D122F070064A6872
:101100003243984205D0B84203D0A04201D0A84251
:1011100003D122F44074CA6822434C6922F0800251
:10112000224302608A68C2620A688262984201D1E0
:101130000969016301214161F0BD0000002C0140FB
:10114000000400400008004010B501F01F03012119
:10115000046A99408C430462016A9A401143016217
:1011600010BD10B5846842EA032224F47F440A4388
:101170002243826010BD826822F070020A4342F06E
:10118000070181607047000030B5036A026A22F0EF
:10119000010202624268846924F073050C682C43E2
:1011A00023F002058B682B430A4DA8420BD123F094
:1011B0000805CB6822F440722B434D6923F00403E9
:1011C00015438A692A434260846149684163036226
:1011D00030BD0000002C014030B5026A036A23F0E4
:1011E00010030362436884690D6824F4E64444EA0A
:1011F00005248D6822F0200242EA05120B4DA84218
:101200000ED1CD6822F0800242EA05124D6923F426
:10121000406343EA85038D6922F0400243EA850377
:101220004360846149688163026230BD002C0140E3
:1012300030B5036A026A22F4807202624268C469AD
:1012400023F4007324F073050C682C438D6843EA83
:1012500005230C4DA8420ED1CD6823F4006343EA68
:1012600005234D6922F4405242EA05128D6923F4A8
:10127000806342EA05124260C4614968C163036247
:1012800030BD0000002C014030B5046A026A22F42F
:10129000805202624268C3690D6823F4E64343EA60
:1012A00005238D6824F4005444EA0534064DA84211
:1012B00004D14D6922F4804242EA85124260C36142
:1012C00049680164046230BD002C014010B5036A16
:1012D000046A24F001040462846924F0F00444EAFE
:1012E000021423F00A020A438461026210BD10B5A1
:1012F000036A046A24F010040462846923F0A003E2
:1013000024F4704444EA023243EA0111826101622A
:1013100010BDFEE70907090E002804DB00F1E020FC
:1013200080F80014704700F00F0000F1E02080F812
:10133000141D7047FFF7EEF8FFF7AAFEFFF7F8FD60
:10134000FFF752FE8A48FFF799FB00218848FFF714
:101350009DFDDFF81C820025D8F800004563854F0D
:10136000854E864C4FF4006B4FF400794FF4806A41
:1013700002213046FFF7B6F8012818D12070024646
:1013800049463846FFF7B3F802E000BF00F0F8F82E
:1013900002213046FFF7A6F80128F7D02570002279
:1013A00049463846FFF7A3F8D8F800004563042102
:1013B0003046FFF797F8012819D10220207001224A
:1013C00051463846FFF793F802E000BF00F0D8F826
:1013D00004213046FFF786F80128F7D02570002257
:1013E00051463846FFF783F8D8F8000045630821D6
:1013F0003046FFF777F8012819D103202070012229
:1014000059463846FFF773F802E000BF00F0B8F81D
:1014100008213046FFF766F80128F7D02570002232
:1014200059463846FFF763F8D8F8000045631021A5
:101430003046FFF757F801281AD1042020708102A6
:1014400001223846FFF753F802E000BF00F098F899
:1014500010213046FFF746F80128F7D0257000220A
:101460004FF480513846FFF742F8D8F80000456342
:1014700020213046FFF736F8012819D105202070C9
:10148000012251033846FFF732F801E000F078F806
:1014900020213046FFF726F80128F7D025700022DA
:1014A0004FF400513846FFF722F8D8F800004563A2
:1014B00040213046FFF716F8012819D10620207088
:1014C000012291033846FFF712F801E000F058F8C6
:1014D00040213046FFF706F80128F7D0257000229A
:1014E0004FF480413846FFF702F8D8F80000456312
:1014F00080213046FEF7F6FF012819D10720207021
:101500000122D1033846FEF7F2FF01E000F038F87F
:1015100080213046FEF7E6FF0128F7D02570002233
:101520004FF400413846FEF7E2FFD8F8000045636B
:101530004FF480713046FEF7D5FF012801D10A2013
:10154000607049463046FEF7CDFF012801D10B20DF
:10155000607051463046FEF7C5FF012801D10C20CE
:10156000607006486178801C405CFEF793FEFFE6E1
:1015700020000020000C0140000801400000002075
:1015800030B42E4B2E481978026809B1322400E09D
:10159000002454635A780A2A04D00B2A1AD00C2A41
:1015A00045D12DE0082942D2DFE801F04104070AC5
:1015B0000C0E10124FF4977237E040F20D1234E027
:1015C000F02232E0E32230E0CA222EE0B4222CE006
:1015D000A0222AE008292AD2DFE801F0290406081F
:1015E0000A0C0E10982220E088221EE079221CE0CE
:1015F00072221AE0662218E05A2216E0502214E005
:10160000082914D2DFE801F0130406080A0C0E10B2
:101610004C220AE0442208E03C2206E0392204E0A1
:10162000332202E02D2200E0282200688262034873
:10163000801C405C30BCFEF72DBE00000000002086
:101640002000002064160008000000202000000098
:10165000280100088416000820000020A8060000C9
:1016600044010008000A3F065B4F666D7D077F6FEF
:101670003837760001000000100000000000000074
:041680000024F4004E
:04000005080000ED02
:00000001FF
